:020000040800F2
:100000008004002001010008F3020008EB02000850
:10001000EF02000889010008A308000800000000A2
:100020000000000000000000000000007104000853
:100030008D01000800000000790300085106000847
:100040001B0100081B0100081B0100081B01000820
:100050001B0100081B0100081B0100081B01000810
:100060001B0100081B0100081B0100081B01000800
:100070001B0100081B0100081B0100081B010008F0
:100080001B0100081B0100081B0100081B010008E0
:100090001B0100081B0100081B0100081B010008D0
:1000A0001B0100081B0100081B0100081B010008C0
:1000B0001B0100081B0100081B0100081B010008B0
:1000C0001B0100081B0100081B0100081B010008A0
:1000D0001B010008B50600081B0100081B010008F1
:1000E0001B0100081B0100081B010008DFF80CD0F1
:1000F00000F038F800480047C508000880040020D8
:100100000648804706480047FEE7FEE7FEE7FEE7B1
:10011000FEE7FEE7FEE7FEE7FEE7FEE7550600081E
:10012000ED000008D2B201E000F8012B491EFBD21D
:1001300070470022F6E710B513460A4604461946F2
:10014000FFF7F0FF204610BD10B5002200E0521C62
:10015000835C8C5CA34201D1002BF8D1D8B2E1B210
:10016000401A10BD064C074D06E0E06840F0010360
:1001700094E8070098471034AC42F6D3FFF7BAFF73
:10018000B4090008D409000800BFFEE7704700B5B5
:10019000034603E04FF47A7000F005F8181EA3F14F
:1001A0000103F7D100BD00EBC001C9004FF0E02210
:1001B0005161002191610521116100BF4FF0E021E3
:1001C000096901F480310029F8D004214FF0E022C0
:1001D000116170472DE9F0410246002500260020FC
:1001E00000230024002791F803C00CF00F0591F8BC
:1001F00003C00CF0100CBCF1000F03D091F802C04A
:100200004CEA050591F800C0BCF1000F31D014682C
:1002100000202BE04FF0010C0CFA00F3B1F800C005
:100220000CEA03069E4220D183004FF00F0C0CFA1B
:1002300003F7BC4305FA03FC4CEA040491F803C03D
:10024000BCF1280F06D14FF0010C0CFA00FCC2F8EB
:1002500014C00AE091F803C0BCF1480F05D14FF07B
:10026000010C0CFA00FCC2F810C0401C0828D1D3C5
:100270001460B1F800C0BCF1FF0F34DD54680020F9
:100280002EE000F1080C4FF0010808FA0CF3B1F869
:1002900000C00CEA03069E4221D183004FF00F0CF0
:1002A0000CFA03F7BC4305FA03FC4CEA040491F88A
:1002B00003C0BCF1280F05D100F1080C08FA0CF8B6
:1002C000C2F8148091F803C0BCF1480F07D100F1C7
:1002D000080C4FF0010808FA0CF8C2F81080401C16
:1002E0000828CED35460BDE8F08100BFFEE700BF10
:1002F000FEE7704770B5002100230F22C47804B3D5
:10030000154C246804F4E064C4F5E064210AC1F1EA
:100310000403CA40447804FA03F18478144021436A
:1003200009010E4C0678A155047804F01F0501243C
:10033000AC4005786D11AD0005F1E025C5F8004130
:1003400009E0047804F01F050124AC40044D067850
:10035000761145F8264070BD0CED00E000E400E0A9
:1003600080E100E002490143024A11607047000049
:100370000000FA050CED00E07047000029B1064AC4
:1003800092690243044B9A6104E0034A92698243F2
:10039000014B9A61704700000010024030B5002107
:1003A0000022002400232D4D6D6805F00C0121B1C1
:1003B000042905D0082923D105E0294D056022E054
:1003C000274D05601FE0254D6D6805F47012234D23
:1003D0006D6805F48034022505EB92421CB9214D6D
:1003E000554305600BE01D4D6D6805F400351DB1EA
:1003F0001C4D5543056002E0194D5543056002E070
:10040000174D056000BF00BF144D6D6805F0F00189
:100410000909154D6B5C0568DD4045600F4D6D6841
:1004200005F4E061090A104D6B5C4568DD408560AC
:100430000A4D6D6805F46051C90A0B4D6B5C456847
:10044000DD40C560054D6D6805F44041890B074DE1
:100450006B5CC568B5FBF3F5056130BD001002406B
:1004600000127A0000093D0000000020100000206A
:100470007047000000B587B001218803FFF77EFFB9
:1004800001210420FFF77AFF18208DF81B004FF49C
:100490000070ADF8180003208DF81A0006A9214855
:1004A000FFF798FE48208DF81B004FF48060ADF8F0
:1004B000180003208DF81A0006A91A48FFF78AFED3
:1004C0004FF4165002900020ADF814000C20ADF847
:1004D00012000020ADF81000ADF80E00ADF80C00D1
:1004E00002A9114800F068F9012240F225510E4896
:1004F00000F03DF94FF4A060FFF734FF25208DF8A0
:10050000040001208DF807008DF805008DF8060025
:1005100001A8FFF7EFFE0121034800F00FF907B033
:1005200000BD0000000801400038014010B504463D
:100530002146054800F0B1F900BF8021024800F0D3
:1005400009F90028F9D010BD0038014070B5044603
:10055000002504E0605DFFF7E9FF681CC5B2605D3F
:100560000028F7D170BD10B500F002F810BD0000F2
:100570000CB50020019000903348006840F48030B2
:100580003149086000BF3048006800F40030009036
:100590000198401C0190009818B90198B0F5A06F1F
:1005A000F1D12948006800F4003010B1012000901A
:1005B00001E0002000900098012843D12348006802
:1005C00040F01000214908600846006820F0030050
:1005D00008600846006840F0020008601A48406859
:1005E000194948600846406848600846406840F439
:1005F000806048600846406820F47C1048600846E7
:10060000406840F4E81048600846006840F0807098
:10061000086000BF0C48006800F000700028F9D0A6
:100620000948406820F003000749486008464068D0
:1006300040F00200486000BF0348406800F00C0032
:100640000828F9D10CBD0000001002400020024033
:100650007047000010B51348006840F001001149D0
:10066000086008464068104908400E49486008463E
:1006700000680E4908400B4908600846006820F4ED
:10068000802008600846406820F4FE0048604FF46F
:100690001F008860FFF767FF4FF0006004490860A3
:1006A00010BD0000001002400000FFF8FFFFF6FE42
:1006B00008ED00E010B540F225511D4800F04AF861
:1006C00010B31B4800F0E4F8C4B21A48008800F4E4
:1006D0000040C8B91748008800F4804060B10A2C77
:1006E00003D000201349088020E01248008840F41D
:1006F00000401049088019E00D2C06D10D480088F3
:1007000040F480400B49088010E00A480088C0F39C
:100710000D0009490C5407480088401C0549088011
:1007200008460088632801DD0020088010BD000015
:1007300000380140140000201800002021B18289F7
:1007400042F40052828104E082894DF6FF731A4020
:100750008281704702460020B1F5007F00D100BFC2
:1007600013880B400BB1012000E000207047F0B56A
:100770000346002400260025002040F66A17B942EF
:1007800000D100BF1846C1F3421401F01F06012733
:1007900007FA06F5012C01D10C3004E0022C01D13E
:1007A000103000E014301AB107682F43076002E0F0
:1007B0000768AF430760F0BD2DE9F04786B00546F6
:1007C0000E460024A24600BFA1460027B08900B112
:1007D00000BF2F462C8A4CF6FF700440F08804437B
:1007E0002C82AC894EF6F3100440B088318908435E
:1007F000718908430443AC81AC8A4FF6FF40044042
:10080000B0890443AC8201A8FFF7C8FD1F488742A6
:1008100002D1DDF810A001E0DDF80CA0A88900F4F9
:10082000004040B10AEBCA0000EB0A1031684900F1
:10083000B0FBF1F807E00AEBCA0000EB0A103168E0
:100840008900B0FBF1F86420B8FBF0F00401200946
:10085000642101FB1089A88900F4004040B13220D6
:1008600000EBC900B0FBF1F000F00700044308E022
:10087000322000EB09106421B0FBF1F000F00F0012
:1008800004432C8106B0BDE8F08700000038014029
:1008900001468888C0F308007047C1F308028280CF
:1008A000704700BFFEE702E008C8121F08C1002A17
:1008B000FAD170477047002001E001C1121F002AE1
:1008C000FBD17047002500260024FFF7D3FD3BE055
:1008D0001E48008800F4004000282DD01B480678F0
:1008E00000240DE01A48015D1A48FFF7D6FF00BF4B
:1008F00040211848FFF72EFF0128F9D1601CC4B22F
:10090000B442EFDB14A11248FFF71EFC20B915A07A
:10091000FFF71CFE012508E018A10D48FFF714FCA5
:1009200018B919A0FFF712FE00250020074908801A
:1009300064210748FFF7FDFB35B919A0FFF706FE54
:100940004FF44870FFF723FCC2E7000014000020BA
:10095000180000200038014053746F702C73746DC0
:100960003332210073746D3332E5B7B2E5819CE612
:10097000ADA2E58F91E980810D0A0000676F2C73AD
:10098000746D33322100000073746D3332E5B7B2F9
:10099000E5BC80E5A78BE58F91E980810D0A000019
:1009A00068656C6C6F2077696E646F7773210D0AD0
:1009B00000000000D409000800000020180000001A
:1009C000A6080008EC0900081800002068040000D0
:1009D000B60800080000000001020304010203043D
:0C09E000060708090204060800000000D9
:04000005080000ED02
:00000001FF
