:020000040800F2
:100000007806002089010008BF030008B703000834
:10001000BB03000843020008030F000800000000B3
:10002000000000000000000000000000350800088B
:1000300047020008000000001D070008150A00081C
:10004000A3010008A3010008A3010008A301000800
:10005000A3010008A3010008A3010008A3010008F0
:10006000A3010008A3010008A3010008A3010008E0
:10007000A3010008A3010008A3010008A3010008D0
:10008000A3010008A3010008A3010008A3010008C0
:10009000A3010008A3010008A3010008A3010008B0
:1000A000A3010008A3010008A3010008A3010008A0
:1000B000790A0008B90A0008A3010008A301000892
:1000C000A3010008A3010008A3010008A301000880
:1000D000A3010008F10C0008A3010008A301000817
:1000E000A3010008A3010008A301000800F002F822
:1000F00000F03AF80AA090E8000C82448344AAF188
:100100000107DA4501D100F02FF8AFF2090EBAE885
:100110000F0013F0010F18BFFB1A43F0010318473B
:100120004014000060140000103A24BF78C878C161
:10013000FAD8520724BF30C830C144BF04680C60ED
:10014000704700000023002400250026103A28BF35
:1001500078C1FBD8520728BF30C148BF0B60704739
:100160001FB51FBD10B510BD00F031F81146FFF7E7
:10017000F7FF00F0E9FE00F04FF803B4FFF7F2FFDD
:1001800003BC00F057F800000948804709480047C1
:10019000FEE7FEE7FEE7FEE7FEE7FEE7FEE7FEE737
:1001A000FEE7FEE704480549054A064B7047000094
:1001B000190A0008ED0000087800002078060020E9
:1001C000780200207802002070477047704775461B
:1001D00000F02CF8AE4605006946534620F00700B3
:1001E000854618B020B5FFF7DDFFBDE820404FF091
:1001F00000064FF000074FF000084FF0000B21F011
:100200000701AC46ACE8C009ACE8C009ACE8C009DD
:10021000ACE8C0098D46704710B50446AFF30080C6
:100220002046BDE81040FFF7A8BF00000048704717
:100230001800002001491820ABBEFEE7260002008E
:10024000704700BFFEE7704700B5034603E04FF478
:100250007A7000F005F8181EA3F10103F7D100BD74
:1002600000EBC001C9004FF0E02251610021916113
:100270000521116100BF4FF0E021096901F48031CF
:100280000029F8D004214FF0E022116170472DE9D8
:10029000F04102460025002600200023002400270C
:1002A00091F803C00CF00F0591F803C00CF0100C8E
:1002B000BCF1000F03D091F802C04CEA050591F89B
:1002C00000C0BCF1000F31D0146800202BE04FF0CB
:1002D000010C0CFA00F3B1F800C00CEA03069E42D0
:1002E00020D183004FF00F0C0CFA03F7BC4305FA42
:1002F00003FC4CEA040491F803C0BCF1280F06D1BA
:100300004FF0010C0CFA00FCC2F814C00AE091F89E
:1003100003C0BCF1480F05D14FF0010C0CFA00FCF2
:10032000C2F810C0401C0828D1D31460B1F800C036
:10033000BCF1FF0F34DD546800202EE000F1080C02
:100340004FF0010808FA0CF3B1F800C00CEA0306FC
:100350009E4221D183004FF00F0C0CFA03F7BC43EF
:1003600005FA03FC4CEA040491F803C0BCF1280F21
:1003700005D100F1080C08FA0CF8C2F8148091F8C5
:1003800003C0BCF1480F07D100F1080C4FF0010881
:1003900008FA0CF8C2F81080401C0828CED354602C
:1003A000BDE8F08141617047016170470AB10161A8
:1003B00000E04161704700BFFEE700BFFEE7704705
:1003C00070B5002100230F22C47804B3154C2468B3
:1003D00004F4E064C4F5E064210AC1F10403CA40F6
:1003E000447804FA03F184781440214309010E4C47
:1003F0000678A155047804F01F050124AC40057867
:100400006D11AD0005F1E025C5F8004109E0047863
:1004100004F01F050124AC40044D0678761145F820
:10042000264070BD0CED00E000E400E080E100E05B
:1004300002490143024A1160704700000000FA05BA
:100440000CED00E070B500240EE00021204600F025
:10045000E6F8002504E0002000F050F9681CC5B261
:10046000802DF8DB601CC4B2082CEEDB70BD0000F0
:1004700008B50121082000F063F914208DF803006D
:1004800003208DF802004FF48070ADF8000069463B
:100490000A48FFF7FCFE4FF40070ADF80000694613
:1004A0000648FFF7F4FE012211020448FFF77EFF21
:1004B000012251020148FFF779FF08BD000C0140FD
:1004C00070B50546002415E08020204100EA0502B1
:1004D0004FF400710E48FFF769FF012211020C482A
:1004E000FFF764FF00224FF480710948FFF75EFFB9
:1004F000601CC4B2082CE7DB012211020448FFF79C
:1005000055FF00224FF480710148FFF74FFF70BD87
:10051000000C014010B5012251020A48FFF746FFC6
:10052000012211020748FFF741FF00224FF400713A
:100530000448FFF73BFF00224FF480710148FFF7AA
:1005400035FF10BD000C014010B500224FF40071C2
:100550000648FFF72BFF012211020448FFF726FF90
:10056000012251020148FFF721FF10BD000C01409C
:1005700070B5002406E0002500E06D1CB5F57A7F1B
:10058000FBD3641CB4F57A7FF5D3FFF771FFAE207F
:1005900000F0A4F8D52000F0A1F8802000F09EF82B
:1005A000A82000F09BF83F2000F098F8D32000F03E
:1005B00095F8002000F092F8402000F08FF8A1207C
:1005C00000F08CF8C82000F089F8DA2000F086F8F6
:1005D000122000F083F8812000F080F8CF2000F096
:1005E0007DF8D92000F07AF8F12000F077F8DB20D0
:1005F00000F074F8302000F071F8A42000F06EF8DC
:10060000A62000F06BF88D2000F068F8142000F0B0
:1006100065F8AF2000F062F8FFF714FF70BD70B509
:1006200005460C4645F0B00000F058F8102141EAAC
:10063000141000F053F804F00F0000F04FF870BDF4
:100640002DE9F04105460E461746721ED206110EE0
:100650006A1E5206100EFFF7E2FF002409E0A7F120
:100660002001134A02EB0111085D00F047F8601CFD
:10067000C4B2082CF3DB721ED206110E6A1E0123CF
:1006800003EB4202D0B2FFF7CAFF00240BE0A7F150
:100690002001074A02EB011204F10801505C00F04E
:1006A0002DF8601CC4B2082CF1DBBDE8F08100001D
:1006B000700F00082DE9F04107460E46154600244C
:1006C00007E02A5D3019C1B23846FFF7B9FF601C58
:1006D000C4B2285D0028F4D1BDE8F08110B504460D
:1006E000FFF718FF7820FFF7EBFE0020FFF7E8FE8A
:1006F0002046FFF7E5FEFFF727FF10BD10B50446C3
:10070000FFF708FF7820FFF7DBFE4020FFF7D8FE59
:100710002046FFF7D5FEFFF717FF10BD704700001A
:1007200029B1064AD2690243044BDA6104E0034A64
:10073000D2698243014BDA61704700000010024029
:1007400029B1064A92690243044B9A6104E0034AC4
:1007500092698243014B9A61704700000010024089
:1007600030B500210022002400232D4D6D6805F0D6
:100770000C0121B1042905D0082923D105E0294D18
:10078000056022E0274D05601FE0254D6D6805F4EA
:100790007012234D6D6805F48034022505EB9242FA
:1007A0001CB9214D554305600BE01D4D6D6805F4E6
:1007B00000351DB11C4D5543056002E0194D5543F0
:1007C000056002E0174D056000BF00BF144D6D6865
:1007D00005F0F0010909154D6B5C0568DD404560C9
:1007E0000F4D6D6805F4E061090A104D6B5C4568BA
:1007F000DD4085600A4D6D6805F46051C90A0B4DF6
:100800006B5C4568DD40C560054D6D6805F4404191
:10081000890B074D6B5CC568B5FBF3F5056130BD11
:100820000010024000127A0000093D000000002084
:10083000100000207047000000B587B00121880338
:10084000FFF77EFF01210420FFF77AFF18208DF8C3
:100850001B004FF40070ADF8180003208DF81A004B
:1008600006A92148FFF713FD48208DF81B004FF41F
:100870008060ADF8180003208DF81A0006A91A4808
:10088000FFF705FD4FF4165002900020ADF814005C
:100890000C20ADF812000020ADF81000ADF80E00ED
:1008A000ADF80C0002A9114800F0B6FA012240F29E
:1008B00025510E4800F08AFA4FF4A060FFF7B8FD0A
:1008C00025208DF8040001208DF807008DF8050023
:1008D0008DF8060001A8FFF773FD0121034800F021
:1008E00032FA07B000BD00000008014000380140A6
:1008F00010B504462146054800F0FFFA00BF8021EC
:10090000024800F02CFA0028F9D010BD0038014050
:1009100070B50446002504E0605DFFF7E9FF681C40
:10092000C5B2605D0028F7D170BD10B500F002F8C7
:1009300010BD00000CB50020019000903348006805
:1009400040F480303149086000BF3048006800F44E
:10095000003000900198401C0190009818B901984F
:10096000B0F5A06FF1D12948006800F4003010B153
:100970000120009001E0002000900098012843D160
:100980002348006840F010002149086008460068CC
:1009900020F0030008600846006840F0020008608C
:1009A0001A48406819494860084640684860084647
:1009B000406840F4806048600846406820F47C103D
:1009C00048600846406840F4E810486008460068FF
:1009D00040F08070086000BF0C48006800F00070B4
:1009E0000028F9D00948406820F003000749486012
:1009F0000846406840F00200486000BF0348406875
:100A000000F00C000828F9D10CBD000000100240D5
:100A1000002002407047000010B51348006840F005
:100A200001001149086008464068104908400E4915
:100A30004860084600680E4908400B4908600846AF
:100A4000006820F4802008600846406820F4FE001A
:100A500048604FF41F008860FFF767FF4FF00060A9
:100A60000449086010BD0000001002400000FFF8BB
:100A7000FFFFF6FE08ED00E010B50121880700F049
:100A800045F801280BD106480088401C044908801D
:100A900004A0FFF73DFF0121880700F028F810BDF2
:100AA0001600002068656C6C6F2077696E646F7744
:100AB00073A3A10D0A00000010B50121084800F041
:100AC00025F801280AD107480088401C05490880FC
:100AD00000F01AFA0121024800F009F810BD0000E8
:100AE0000004004016000020CA4302827047CA4337
:100AF0000282704721B1028842F00102028004E0C4
:100B000002884FF6FE731A400280704730B50246E5
:100B1000002000230024158A05EA0103958905EACF
:100B2000010413B10CB1012000E0002030BD1AB166
:100B300083890B43838102E083898B4383817047E0
:100B400001894FF6F8721140018170470022028836
:100B50001D4B98420ED01D4B98420BD0B0F1804FE8
:100B600008D01B4B984205D01A4B984202D01A4B22
:100B7000984204D14FF68F731A404B881A43174B93
:100B8000984207D0164B984204D04FF6FF431A40C4
:100B9000CB881A4302808B8883850B8803850A4B98
:100BA00098420BD0094B984208D00E4B984205D082
:100BB0000D4B984202D00D4B984201D10B7A03861F
:100BC0000123838270470000002C01400034014063
:100BD0000004004000080040000C004000100040ED
:100BE0000014004000400140004401400048014022
:100BF0001FB501210846FFF793FD4FF08040FFF736
:100C00009FFF0020ADF80A00ADF8060042F20F7019
:100C1000ADF8080048F69F40ADF8040000208DF8BC
:100C20000C0001A94FF08040FFF790FF01218807D9
:100C3000FFF75AFF012211469007FFF778FF4FF4A4
:100C4000A060FFF7F5FB1C208DF8000001208DF857
:100C5000030002208DF8010001208DF80200684693
:100C6000FFF7AEFB01218807FFF744FF1FBD00001F
:100C70001FB501210220FFF753FD1C48FFF760FF5D
:100C80000020ADF80A00ADF8060042F20F70ADF892
:100C9000080041F61F40ADF8040000208DF80C005C
:100CA00001A91248FFF752FF01211048FFF71CFF6E
:100CB000012211460D48FFF73AFF4FF4A060FFF7FD
:100CC000B7FB1D208DF8000001208DF803000220E5
:100CD0008DF8010001208DF802006846FFF770FBD7
:100CE00001210248FFF706FF1FBD0000000400407D
:100CF00010B540F22551094800F03EF801280CD10A
:100D0000064800F0F5F8064908700120054908700A
:100D100040F22551014800F007F810BD00380140AD
:100D2000140000201500002010B50022002340F61A
:100D30006A14A14200D100BF0A1201249440A3B258
:100D4000DC43048010BD21B1828942F400528281CB
:100D500004E082894DF6FF731A4082817047024693
:100D60000020B1F5007F00D100BF13880B400BB10C
:100D7000012000E00020704770B5024600240023E7
:100D80000025002040F66A16B14200D100BFC1F331
:100D9000421501F01F03012606FA03F3012D02D1CB
:100DA0009689334006E0022D02D1168A334001E0D5
:100DB000968A33400C12012606FA04F41688344051
:100DC00013B10CB1012000E0002070BDF0B5034666
:100DD000002400260025002040F66A17B94200D101
:100DE00000BF1846C1F3421401F01F06012707FA9D
:100DF00006F5012C01D10C3004E0022C01D1103099
:100E000000E014301AB107682F43076002E007685A
:100E1000AF430760F0BD00002DE9F04786B00546FE
:100E20000E460024A24600BFA1460027B08900B1AB
:100E300000BF2F462C8A4CF6FF700440F088044314
:100E40002C82AC894EF6F3100440B08831890843F7
:100E5000718908430443AC81AC8A4FF6FF400440DB
:100E6000B0890443AC8201A8FFF77AFC1F4887428F
:100E700002D1DDF810A001E0DDF80CA0A88900F493
:100E8000004040B10AEBCA0000EB0A10316849008B
:100E9000B0FBF1F807E00AEBCA0000EB0A1031687A
:100EA0008900B0FBF1F86420B8FBF0F004012009E0
:100EB000642101FB1089A88900F4004040B1322070
:100EC00000EBC900B0FBF1F000F00700044308E0BC
:100ED000322000EB09106421B0FBF1F000F00F00AC
:100EE00004432C8106B0BDE8F087000000380140C3
:100EF00001468888C0F308007047C1F30802828069
:100F0000704700BFFEE7000008B501210420FFF78D
:100F100017FC10208DF803000120ADF8000003201D
:100F20008DF8020069460748FFF7B1F9012105482D
:100F3000FFF738FA0520FFF787F901210148FFF78D
:100F400033FA08BD00080140FFF712FBFFF750FE1F
:100F5000FFF78EFEFFF770FC03A201210846FFF7A2
:100F6000A9FB00BFFEE700004E756D3A00000000CF
:100F70000000000000000000000000000000000071
:100F8000000000F800000000000000333000000006
:100F900000100C06100C060000000000000000000D
:100FA00040C07840C0784000043F04043F0404007F
:100FB000007088FC08300000001820FF211E00008F
:100FC000F008F000E018000000211C031E211E00A4
:100FD00000F00888700000001E212324192721102A
:100FE00010160E00000000000000000000000000CD
:100FF000000000E018040200000000071820400074
:1010000000020418E0000000004020180700000063
:10101000404080F0804040000202010F01020200C7
:10102000000000F0000000000101011F01010100AB
:10103000000000000000000080B070000000000010
:101040000000000000000000000101010101010199
:101050000000000000000000003030000000000030
:101060000000000080601804006018060100000005
:1010700000E010080810E000000F102020100F0002
:10108000001010F8000000000020203F2020000089
:1010900000700808088870000030282422213000E1
:1010A00000300888884830000018202020110E00E9
:1010B0000000C02010F8000000070424243F240092
:1010C00000F80888880808000019212020110E0067
:1010D00000E0108888180000000F112020110E0079
:1010E00000380808C83808000000003F0000000071
:1010F0000070880808887000001C222121221C0032
:1011000000E010080810E0000000312222110F005A
:10111000000000C0C00000000000003030000000EF
:10112000000000800000000000008060000000005F
:101130000000804020100800000102040810200078
:1011400040404040404040000404040404040400C3
:101150000008102040800000002010080402010058
:10116000007048080808F000000000303601000058
:10117000C030C828E810E0000718272423140B000B
:101180000000C038E0000000203C23020227382085
:1011900008F8888888700000203F202020110E0069
:1011A000C030080808083800071820202010080060
:1011B00008F808080810E000203F202020100F0049
:1011C00008F88888E8081000203F20202320180015
:1011D00008F88888E8081000203F2000030000007D
:1011E000C03008080838000007182020221E02001E
:1011F00008F808000008F808203F210101213F20DD
:10120000000808F8080800000020203F2020000007
:1012100000000808F8080800C08080807F000000F7
:1012200008F888C028180800203F20012638200030
:1012300008F8080000000000203F20202020300097
:1012400008F8F800F8F80800203F003F003F2000B1
:1012500008F830C00008F808203F200007183F00B9
:10126000E01008080810E0000F10202020100F00E8
:1012700008F808080808F000203F210101010000DB
:10128000E01008080810E0000F18242438504F0020
:1012900008F8888888887000203F2000030C3020E0
:1012A00000708808080838000038202121221C001E
:1012B000180808F8080818000000203F2000000067
:1012C00008F808000008F808001F202020201F0050
:1012D0000878880000C83808000007380E010000B0
:1012E000F80800F80008F800033C0700073C03007A
:1012F000081868808068180820302C03032C3020E0
:101300000838C800C83808000000203F200000004E
:1013100010080808C83808002038262120201800A6
:10132000000000FE020202000000007F404040007A
:10133000000C30C000000000000000010638C000B2
:1013400000020202FE000000004040407F0000005A
:10135000000004020202040000000000000000007F
:10136000000000000000000080808080808080807D
:101370000002020400000000000000000000000065
:1013800000008080808000000019242222223F205B
:1013900008F8008080000000003F112020110E009E
:1013A0000000008080800000000E1120202011002D
:1013B000000000808088F800000E112020103F20DF
:1013C0000000808080800000001F22222222130063
:1013D000008080F0888888180020203F20200000AE
:1013E0000000808080808000006B94949493600063
:1013F00008F8008080800000203F210000203F206E
:1014000000809898000000000020203F202000006D
:10141000000000809898000000C08080807F00005D
:1014200008F8000080808000203F24022D3020003A
:10143000000808F8000000000020203F20200000E5
:101440008080808080808000203F20003F20003FFF
:101450008080008080800000203F210000203F200D
:101460000000808080800000001F202020201F00BE
:10147000808000808000000080FFA12020110E00ED
:101480000000008080808000000E112020A0FF80DE
:10149000808080008080800020203F21200001008B
:1014A00000008080808080000033242424241900E0
:1014B000008080E0808000000000001F20200000ED
:1014C0008080000000808000001F202020103F202E
:1014D000808080000080808000010E3008060100BE
:1014E00080800080008080800F300C030C300F0063
:1014F00000808000808080000020312E0E3120008E
:10150000808080000080808080818E7018060100BD
:1015100000808080808080000021302C22213000DB
:1015200000000000807C020200000000003F4040FC
:1015300000000000FF00000000000000FF000000AD
:101540000002027C800000000040403F00000000DC
:101550000006010102020404000000000000000077
:101560008015000800000020180000002801000875
:1015700098150008180000206006000044010008CB
:101580000000000001020304010203040607080929
:0815900002040608000000003F
:04000005080000ED02
:00000001FF
